:020000021000EC
:1060000000400020FF600100D5600100D760010062
:106010000000000000000000000000000000000080
:10602000000000000000000000000000D960010036
:106030000000000000000000FD86010000000000DC
:10604000DB600100DB60010089CB0100DB60010047
:10605000DB60010000000000DB600100DB6001008C
:10606000DB600100DB600100DB600100DB60010040
:10607000DB600100DB600100DB600100DB60010030
:10608000DB60010045870100DB600100DB6001008F
:10609000DB600100DB60010025C60100DB60010060
:1060A000DB600100DB600100000000000000000078
:1060B00000000000000000000000000000000000E0
:1060C000C812020000200020280000002820002024
:1060D000A01B0000FEE7FEE7FEE7FEE7002310B589
:1060E000934203D21C585C500433F9E710BD0023DF
:1060F0008B4203D200221A500433F9E77047802301
:1061000003221149DB0510B55A501049104C5A5062
:10611000104B9C4206D220686168A268FFF7DEFF40
:106120000C34F5E70C4B9C4205D220686168FFF700
:10613000DEFF0834F6E700F035FD00F083FD09F0DE
:10614000C9FC00F0A5FDFEE7240500005405000091
:10615000C0600100CC600100D4600100704710B540
:10616000041C00F063FB201C10BD0000031C011C7C
:10617000044A2C31083204C3002204C38B42FBD1F1
:10618000C2627047B8FC010008B5C36A9A00821861
:1061900001335160092B00DD0023C362031C021D83
:1061A00000202C3302CA40189A42FBD108F02EFB83
:1061B000014907F069FE08BD00002041002070473A
:1061C0000120704738B5041C0D1C04F019F9201C7F
:1061D000054B202123600C3005F006FC0023A56050
:1061E000201C237138BDC046D0FC010010B5041C32
:1061F000044B03600C3005F0D3FB201C04F0F8F8CE
:10620000201C10BDD0FC010010B5041CFFF7EEFFF0
:10621000201C00F00BFB201C10BD38B5041CA0682E
:1062200003681B69984700282ED0A06803689B6A02
:1062300098472379011C012B0AD0002B02D0022B96
:106240000CD0ECE7DF231940DE3B4129E7D115E014
:10625000DF231940DD3B54290FD10FE0251C0C35FD
:10626000232801D00D280BD1236A002B02D0A0686F
:10627000291C9847281C05F019FA00232371CEE742
:10628000281C05F0E6F9CAE738BD000010B5041C6B
:10629000024B036004F0ACF8201C10BD480E020055
:1062A00008B503689B69984708BD036810B5DB69AA
:1062B0000C1C984784428041404210BD10B5041C1C
:1062C000FFF7E4FF201C00F0B1FA201C10BD000015
:1062D00070B50F4D281C02F05BFF0E4C0E49221CBE
:1062E000281C00F0A7FA0D4E301C05F0E3FD0C4D04
:1062F000221C291C301C00F09DFA0A4E301C05F0AF
:10630000D9FD301C291C221C00F094FA70BDC04637
:106310002C2000202420002095920100D82000206D
:106320008D620100E020002070B50C1C0B6888B065
:106330005B6C051C081C9847202103A805F054FB42
:106340002368201CDE6D49490B220023B0470A2830
:106350006DD807F001FA06091C1E35404951585FF7
:10636000630000F081FC66E023680821DB6E201CDE
:1063700098473F4B021C186000230093FA231B012F
:1063800001933C483C4B6C303C491B6813E0384B54
:1063900017E023680821DB6E201C9847364A031C4F
:1063A000106000220092FA2212010192304A314814
:1063B000324912686C3003F047F803A8304938E0DE
:1063C0002D4B186809F084FA0B1C2E49021C03A8F7
:1063D00004F026FE2FE02C4B186809F079FA021C15
:1063E0000B1C03A82949F3E72368201C5B6E0A21D4
:1063F0009847274B1860E0E7254B03A825491A6802
:1064000004F00EFE17E00122234B24481A7005F019
:1064100037FD10E00022204B1A700CE00122204BC7
:1064200003A81A7000221C4B1E491A7001E01E4975
:1064300003A805F098FA03A805F04DF800280FDD31
:106440002B68002103A8DC6905F027F8061C03A8C7
:1064500005F041F80123021C311C281C5B42A047B7
:1064600003A805F09DFA08B070BDC046ACFD010060
:10647000082000202C20002004200020E0FC010047
:10648000E9FC0100EDFC0100D4200020F1FC01003A
:1064900000200020E50A020028200020D82000204B
:1064A000D0200020F8FC0100FEFC0100202170B586
:1064B000B84C0A1CA54439A804F0A8F90923002205
:1064C000009302330193033B029302330393B249D7
:1064D000131C39A804F0FEF939A94DA803F0ACFC4F
:1064E00080214DA803F08AFC122107A804F01EF8B1
:1064F000132109A804F01AF814210BA804F016F8C7
:1065000015210DA804F012F807A80021012203F0BC
:106510008BFF09A80021012203F086FF0BA80021B0
:10652000012203F081FF002101220DA803F07CFF6E
:106530009A4C0025201C02F08DFDFA23261C1B011D
:106540000193974B00951A68964B6C361B68301C6C
:10655000954902F079FF301C291C02F0CFFF211C65
:1065600017A803F01FF802230122032602933E33EB
:10657000211C00920393049301968C4B65A803F0B1
:1065800089FA8B4B2A1C211C00930434894B0196F9
:10659000029503951BA802F09FFB201C864902F080
:1065A000D0F9201C592102F0CEF9291C201C02F040
:1065B000DDF9201C02F010FA6EA924A8FFF702FEF4
:1065C0007E4B2DA82C93FFF7D1FD0FA805F072FC90
:1065D00011A805F06FFC24A8FFF71FFE65A803F0C3
:1065E00017F9011C09A8002918D00121FFF758FE4E
:1065F0006EA804F0BEFD002806D011A805F040FCEE
:106600000BA80121FFF74CFE53A804F0D7FB00288C
:1066100006D011A805F034FC01210BA8FFF740FEBD
:10662000FA210FA84900FFF740FE002819D00FA853
:1066300005F026FC07A803F03DFF411E481E8141DE
:1066400017AC07A8C9B2FFF72BFE201C02F07CFF95
:10665000002806D008212DA86156FFF795FD584B5C
:106660001860FA2111A84900FFF71FFE002806D084
:1066700011A805F005FC0BA80021FFF711FE514BF6
:106680001B78002B07D0504C504B201C1968FFF78B
:106690000CFE002873D14E4B1B78002B6BD013A837
:1066A00005F008FC15A805F005FC0DA80121FFF771
:1066B000F7FD4DA8474903F013FC6EA804F059FDFF
:1066C0000028FAD0002413A805F0DAFB15A805F07D
:1066D000D7FB251CFA26B60015A8311CFFF7E5FDEF
:1066E000002810D16EA804F044FD0028F2D015A8AF
:1066F00005F0C6FB6EA804F003FD13A805F0C6FB69
:106700000135041CE6E70DA80021FFF7C9FD202193
:106710001FA805F069F9301C211C684307F0B6F882
:10672000231C2A1C00902C491FA804F079FC00218E
:106730001FA804F0B2FE2949021C4DA803F0D0FBAB
:1067400000211FA804F0A9FE041C1FA804F0C3FE2A
:106750000123021C211C5B426EA804F0B9FD00223B
:106760001B4B1FA81A7005F01BF915A8FFF78EFD2B
:1067700013A8FFF78BFD1BA802F06CFB2BE7201C76
:1067800005F07EFB6EA816490A22012304F0A0FD45
:1067900081E7C046D8FDFFFF00E0D7012C20002094
:1067A0000820002004200020E0FC0100E00402009A
:1067B000307500008813000000007A44296301004E
:1067C000D420002028200020D820002000200020F5
:1067D000D020002005FD01001AFD010042FD01004E
:1067E00045FD010008B50648064900F04FF8B422FF
:1067F000054B520009201A6002F07EFB08BDC0461E
:10680000E8200020701700000C20002008B501F0DF
:1068100071FE08BD08B501F079FE08BD08B501F0AC
:1068200069FE08BD08B501F065FE08BD08B501F0B8
:106830006DFE08BD00207047FEE74268002A0DD0BB
:1068400093681903090F09D181689BB20C31CB18E9
:1068500083605368002B00D0186043607047031CAE
:10686000081C1A890C300C3A1818521A82605A689F
:10687000036042605A68002A00D0106080225202F1
:1068800089B211435860996070470000174B70B58A
:10689000174A1C68174B944202D01A68002A23DC5E
:1068A0001A68032A20DC0C221D68134C554328511A
:1068B0001D684E1E5543651969601D6830185543A3
:1068C0006519A86018680C395043005989B2816075
:1068D0001968514308590021016018684243125950
:1068E00051601A6801321A6070BDC046FC0F00008A
:1068F00000E7A895583800205C380020002310B528
:106900000A4A126893420BDA0C225A430849545837
:10691000844203D88A189268904204D30133EFE787
:106920000120404200E0181C10BDC046583800202D
:106930005C38002010B5031E34D01C1CFFF7DEFFAE
:10694000A368C00F9A0701D00222104321680029D2
:106950000BD04A68A24201D0042210430A898A1847
:106960000C32944201D00822104362681B04002AB2
:106970000BD01168A14201D0102108431B0C0C332D
:10698000E3189A420ED020230BE00C224243064922
:106990001B0C8A1892680C33E3180132934201D021
:1069A0004023184310BDC0465C38002010B5041EBB
:1069B0002BD003230022C11C9943154B1B689A421C
:1069C00022DA0C23534313481C58002C1AD0A36816
:1069D0001803000F14D198B2884211D90A1C18323A
:1069E000904203D3201CFFF73AFF03E080225202BB
:1069F0001343A360A3681B031B0BA3600C3404E0C8
:106A00006468E2E70132D8E70024201C10BDC046CC
:106A1000583800205C38002010B5002825D00C38EC
:106A2000041CFFF76BFF00281FDB104B1B6898420C
:106A30001BDA201CFFF77EFF002816D12389A360F4
:106A4000206800280ED083681B031B0F0AD1FFF7B4
:106A5000F4FE2468F4E79B681B031B0F05D1201C80
:106A6000FFF7EBFE6368002BF5D110BD583800200E
:106A7000002310B5934203D0CC5CC4540133F9E732
:106A800010BD70B5051C0C1E11D0061C03230C3E56
:106A900005349C4333899C420ED9201CFFF786FFA6
:106AA000041E1FD0B268291C92B2FFF7E1FF281C18
:106AB000FFF7B2FF201C15E0301CFFF71FFF221C60
:106AC000338918329A420CD2301C211CFFF7C7FEC2
:106AD0004368002B05D09B681B031B0F01D1FFF7F8
:106AE000ACFE281C70BD002A02D0013A8154FAE79E
:106AF00070470C38806880B270470000094B002254
:106B00001B6898420CDA0C235843074BC358002BE0
:106B100006D098680103090F00D112185B68F6E7E8
:106B2000101C7047583800205C380020F8B500244D
:106B3000A04231D0061C271C184B1B689F422BDA41
:106B40000C237B43164A9D58002D23D00F22AB689F
:106B5000190C114001291BD1190DB14218D1286817
:106B60009BB2AB60E418002807D083681B0C13426B
:106B700003D1FFF762FE2D680C346B68002B07D041
:106B80009B681B031B0F03D1281CFFF756FE0C3418
:106B90006D68D9E70137CFE7201CF8BD58380020D1
:106BA0005C3800201B4A10B51378111C012B19D139
:106BB000194B1B681B0715D1184BE0241A68F023EA
:106BC000101C184022420BD1154A12681A4209D1F2
:106BD000144A154B1A608022144B12021A6001E00D
:106BE0003028F1D00B68DBB2012B12D10A4A1268AF
:106BF00012070ED1F021094A12680A40402A08D132
:106C0000074A12680A4204D1C1228021D200C90574
:106C10008B5010BDE00F00F0E40F00F0E80F00F023
:106C2000EC0F00F0DFFF07C004050040186C0040C7
:106C300011DF704708B5FFF739FC002000F084FF32
:106C400008BD000008B5FFF7CDFD80235B05DA6DB8
:106C5000F0231340802B04D180210248C901FFF7A3
:106C600015FE08BD0040002008B504F033FAFFF718
:106C7000DFFF00F05BF8BFF34F8F034A034BDA608E
:106C8000BFF34F8FFEE7C0460400FA0500ED00E0B9
:106C90001FB5E023A0220A49DB00D205D150094BE1
:106CA00009491A68002392B2009301930293039357
:106CB000064800F073FE01F029F805B000BDC0469B
:106CC0000C0003000C200020D8FD0100356C0100F1
:106CD00008B501F06DF908BD70B5041C01F03CFB6E
:106CE000061C0120002E0DD0356B281CFFF701FF7C
:106CF000326B031C0020A24204D8013DED18AC42C7
:106D0000A441604270BD0000064B1868431C07D0C8
:106D1000054B1B68C31A5A4253415B42184000E0BE
:106D200000207047F40F0000F80F0000064B1968B0
:106D3000002301229A40114201D00448C267013366
:106D4000202BF6D17047C04600E100E004E100E0EE
:106D500072DF704779DF70477DDF704765DF70470E
:106D6000F0B50024061C251C87B00C9F00933B78CF
:106D700003910292019333889D423ADA7368A90025
:106D80005918042205A801F0D9FB04AB05A8D91CA9
:106D90000022FFF7E3FF002835D104ABDB78029A2D
:106DA000934222D16242624102993B7852005918C3
:106DB0008A181F2A1BDC002C07D169469A1C3A70DE
:106DC0000133009A097BDBB2D15404ABDC1C3A7866
:106DD000009B05A89A18211CFFF7C0FF002812D1BC
:106DE000237801243A78D3183B700135C3E70C208F
:106DF00009E00020844206D03B78019A013B9B1AAF
:106E00000199009A535407B0F0BDF7B5089E171CBE
:106E100000960222051C1C1CFFF7A2FF002806D1C9
:106E20000096281C391C1022231CFFF799FFFEBD79
:106E30000023F0B51370037889B0061C0D1C141CD8
:106E4000002B03D1B378002B4BD029E043780C20E2
:106E50001D2B00DD61E10E2704ABFF181D23881CEC
:106E6000391C3B80FFF778FF002800D055E13378CC
:106E7000022B03D13B8809221D2B08D97378002BE4
:106E800003D09BB208221D2B01D908223B88DBB21C
:106E9000591C29706A70227802329B182370D1E73E
:106EA00023780C201B2B00DD37E10E2704ABFF18E5
:106EB000381CFFF74FFF002800D02EE123785A1C22
:106EC00022700322EA5423785A1C22701922EA54B1
:106ED00023783A88EB181A70120A5A702378023312
:106EE0002370B388002B1FD0B2680720002A00D17E
:106EF00013E122780530911CCB181F2B00DD0CE12B
:106F0000531C2370B3880133AB5423785A1C22706E
:106F10000122EA542078B2882818B16801F00EFBEB
:106F2000B2882378D3182370F368002B12D01A7814
:106F300023780C201C2B00DDEFE0591C217002216E
:106F4000E9542378591C21700A21E9542378591CEB
:106F50002170EA54338A002B03D1338B002B16D0D7
:106F60000AE0301C00941030022106222B1CFFF78F
:106F70004CFF0028F1D0D0E0301C009418300321E1
:106F800007222B1CFFF741FF002800D0C5E0338CFF
:106F9000002B0AD0301C00942030142115222B1C09
:106FA000FFF733FF002800D0B7E0B36A002B49D0C9
:106FB00022780C20049206321F2A00D9ADE01988ED
:106FC0000538052900D8A8E0554A564F8A1892B2CC
:106FD000BA4200D8A1E05A880392052A00D89CE062
:106FE0004F4FBC469444674602AA97819789BC4696
:106FF0004C4FBC4500D890E04B4FB94205D0039AA6
:10700000BA4202D0914200D987E0049A0499013231
:10701000227005226A542278511C21701221A95431
:1070200022781988AA181170090A51702278023240
:10703000D2B222705988AB181970090A5970237896
:1070400002332370F76A002F29D03A792178931CF4
:10705000881CDBB2C3180C201F2B5EDC4B1C0332D8
:1070600023706A5423785A1C2270FF22EA54237832
:107070003A88EB181A70120A5A7023780233DBB27E
:107080002370BA88002A0AD0B9680538002944D08C
:10709000E81801F053FABA882378D3182370331C08
:1070A000343305931B78002B01D1002035E0336B7E
:1070B000002B31D000230493059B049A1B78934244
:1070C000F3D90C27049B22785F43336B511CDF19E3
:1070D0003B7921700333AB5423785A1C227016225B
:1070E000EA5423783A88EB181A70120A5A702078FA
:1070F0000230C0B22070BA88002A09D0B9680029CD
:107100000AD0281801F01AFABA882378D318237005
:10711000049B0133DBB2CEE7072009B0F0BDC046C7
:107120007FF3FFFF7DF30000FFFF0000F0B593B099
:107130006B466A469E1D0023D71D0D1C33703B70A5
:1071400098420BD08388002B01D1072024E083686C
:10715000002BFAD01B785B07F7D50DE0041C002D3F
:1071600003D0AB88002BF0D10EE02A1C31783B789D
:10717000201CFFF7EDFD0FE002A9321CFFF758FEBF
:1071800002AC0028EBD007E03A1C281C0AA9FFF744
:107190004FFE0AAA0028E9D013B0F0BD75DF704792
:1071A00076DF70477ADF70477BDF704713B5144B8B
:1071B00014495A880888144B144C90420CD84988BA
:1071C000914209D35B69002B03D0012201A8027010
:1071D00098470023237013BD2278002A05D05B69ED
:1071E000002BF6D001A80022F1E7094A1188094ACC
:1071F000002901D15B6800E09B681360E9E7C046A5
:10720000B83B0020943B00209C3B00208C380020A1
:10721000C23B0020903B002073B50021174B196042
:10722000174B1888174B984226D0174A174D1388CA
:107230002C1C01339BB213802E7B9E4208D3144931
:10724000FFF7ACFF002817D0AB69002B13D113E078
:1072500011802B7C002B08D03B21FFF7A1FF0028D9
:1072600003D0AB69002B00D098476369002B03D093
:10727000002201A80270984773BDC046903B0020D1
:10728000C03B0020FFFF0000C23B00209C3B0020D1
:10729000943B0020134938B5021C0B1C32CA32C380
:1072A00032CA32C31268104C1A6000220F4B0168B8
:1072B0001A70201C914211D0083201F03FF9201CB5
:1072C000FFF770FF00280CD101220020084B52422A
:1072D0001A80084B1880084B186002E0FFF764FF23
:1072E000F0E738BD9C3B0020943B00208C38002008
:1072F000C03B0020C23B0020903B00200020014BFF
:1073000018607047903B002008B50388112B1CD0F3
:10731000011C112B02D8102B05D035E0122B2CD0DC
:10732000502B1AD030E08288184B0E311A80184842
:10733000082201F003F90023164A1380164A13604D
:10734000164BDB89002B1FD11CE001220F4B524250
:107350001A8000230F4A13800CE0104AC088D2899B
:10736000904211D1CB8B022B0ED10131CA7F013B50
:10737000134007D1084A136006E00631044808228A
:1073800001F0DCF8FFF712FF08BDC046C03B00204B
:10739000B83B0020C23B0020903B00209C3B0020DB
:1073A00021DF704720DF704737B5021C14200C4CDA
:1073B0002378584320180179C068092802D1094868
:1073C000056802E0084D0001455914204343E018C8
:1073D000E318DC880C3000945B69A84737BDC046D1
:1073E0009038002030390020A8380020F7B5664CCE
:1073F0001D1C2378071C002B06D1131C2B4301D125
:10740000023300E00123237023780320013B052B86
:1074100000D9B8E0181C00950E1C151C06F09CF94C
:10742000032333705D968023584A5B05516901310F
:1074300005D05069196989B206F098F900E05869D9
:10744000802252051369116912699BB2013889B211
:1074500092B2584371439208FFF7A2FF022300281B
:1074600000D18FE08FE0081CFFF79CFF002800D0C0
:1074700089E0002D2DD1009B002B26D13B78042BD9
:1074800021D1072322E080235B0519693F4A89B295
:107490004E43516901311ED05069196989B206F015
:1074A00065F980235B051969013889B241432A1CBB
:1074B000301CFFF775FF002865D1009B002B04D11D
:1074C0003B78042B1AD0052300E00423237000200E
:1074D00059E0032356E05869E3E780235B05186908
:1074E000910080B246437A88881992083969FFF77B
:1074F00057FF002847D1009B1D43C2D00623E5E774
:1075000080235B051969950089B24E437A88B618C5
:1075100001921E4A76195169013106D050691969E4
:1075200089B206F023F9411E01E05969013980232F
:107530005B051B69019A9BB24B43AD18E918301CDF
:10754000009AFFF72DFF0028BAD01CE080230F4AD5
:107550005B055169013105D05069196989B206F09E
:1075600005F900E0586980225205136911699BB240
:107570000138584389B206F0F9F8FFF713FF0028E5
:1075800001D107232370FEBD3939002000100010FF
:10759000F7B514243D4A13785C431419211C009359
:1075A00023790831271D8D680192042B18D0052BF3
:1075B0004BD00F20022B67D1354B20891E88636981
:1075C000B602E2889919334B4019921B80199A42EE
:1075D00001D8920801E080225200FFF7E1FE4EE060
:1075E000802649682C4A0B01D31818895A895B6890
:1075F0007605AB4204D1131C4343E288934201D089
:1076000009290AD13169281C89B206F0AFF8204B4C
:107610001B88C018FFF7C6FE31E03169281C89B20B
:1076200006F0A4F832693469431CA4B25C43142305
:1076300092B24243011C0098AA1A4343019892084F
:10764000C318DB88EB18E31A15E08026760531694C
:10765000281C89B206F08AF8011C32692389306936
:1076600092B25D194A434B1C86B25E43E388AA1A64
:107670005B199208F31A9B08381CFFF7B7FE002825
:1076800002D10123019A9370FEBDC04690380020BC
:107690003A390020FF030000A838002008B5064B47
:1076A0005B78002B01D1002005E0FFF771FF002877
:1076B000F9D01128F7D008BD90380020F7B5364B27
:1076C0009A781C1C002A66D00026344A9E701378D3
:1076D000171C082B06D1022801D1167045E0304B4B
:1076E0001E7042E0022803D0032854D10D2040E050
:1076F00014212C4D20782A884143013292B22A80ED
:10770000611808790195022804D1CB8892029A4227
:1077100011DA2AE0052837D0042826D1D81F45429F
:107720004541C988281C92028A4225DB0122002B90
:1077300022D1002823D00026301C3E70FFF734FEF3
:107740001423082022785343E3181E71DE80D8608A
:107750001E615E611E81019B1E806378013B637028
:10776000FF2A01D1267000E02270FFF797FF002862
:1077700011D0FFF719FE0EE0331C0022D9E7002AD2
:10778000D9D1002BD7D1F0E7073B5A425341301CE7
:10779000002BF2D0CFE7F7BD903800203939002018
:1077A000383900203A39002008B5002308211D4A45
:1077B00013801D4A13701D4A1370537053619370E8
:1077C0001371D380D16013611381194A1380802310
:1077D000184A5B055169013105D05069196989B2B0
:1077E00005F0C4FF00E0586980235B051B69093878
:1077F0009BB25843104A114B1860131C883208334F
:10780000191C0020083908601880988058801033AF
:107810009342F5D101220A4B18609880094B1A70E7
:1078200008BDC0463A390020393900209038002080
:107830002839002000100010A83800202C39002022
:107840003039002038390020064B1A780823002AE6
:1078500006D00633002803D0034B5B780360002377
:10786000181C704738390020903800200020074B42
:107870001B68DB6A834208D1054B1B68012B04D8C7
:10788000044B054A1B681068181A7047E03900203D
:107890008839002010200020F8390020F7B5002496
:1078A0000B689446A3423DD00E1C4B6808365A68BC
:1078B0004A60B24201D173684B604B680024DB68B8
:1078C0000093031C4A6852684A60B24201D1CA68F8
:1078D0004A604A68D268101C34305860D06B1A6015
:1078E000986060461873D06A18616046032804D116
:1078F000906A002801D002201873506C176B5861F1
:1079000000209861381CC51B01950578A52D01D173
:107910000130F8E701980134850800989D832033F1
:107920008242CFD1201CFEBD074A13681968074B5D
:10793000002902D10122524203E01268D268D268C3
:1079400052681A607047C04650390020102000204D
:107950000D4B10B51A68041E50600C4A1268944210
:1079600006D20B4A10681968043105F062FA0AE081
:10797000084A10681968043105F05BFA064B1A686A
:10798000944200D21C6010BDE0390020F83900207C
:10799000FC3900205039002010200020F0B585B0BF
:1079A0000C9D02900F1C141C0393002D05D1900018
:1079B00000F0A0FD051E00D1A6E0582000F09AFDC1
:1079C000061E0ED0A4000563221C281CA52100F071
:1079D000C5FD336B043C1C1907239C430194002311
:1079E00006E0281C00F092FD8EE00133082B06D043
:1079F0001A1CF95C3432B154FA5C002AF5D1331CFC
:107A000000250A9C3B331D70032C00D90324331D31
:107A1000181CF4627464B564009305F0FBF9301C23
:107A2000183005F0F7F904231C1B331C543336615E
:107A3000B4617662F564356501981D700299039A08
:107A400000F0CCFD0B9B3060002B00D01E6000F0DE
:107A500037FE304B304C1A68304D01321A602268C4
:107A60002F4F002A28D126601B68012B2DD1281CFE
:107A700005F0C5F9281C143005F0C1F9281C283080
:107A800005F0BDF9281C3C3005F0B9F9254805F092
:107A9000B6F9254805F0B3F9244805F0B0F92448B3
:107AA00005F0ADF9234805F0AAF9234B1D4A1A60E9
:107AB000224B1D4A1A6008E03B68002B05D1236861
:107AC0000A9ADB6A934200D826601D4AF06A13685E
:107AD00001331360F3631B4B1A68904200D918609E
:107AE000142358430099281805F097F900F0F4FD85
:107AF0003B680125002B09D023680A9ADB6A934270
:107B000004D200F0D1FD01E001256D42281C05B032
:107B1000F0BDC046183A0020E03900208839002026
:107B200054390020043A002070390020E439002044
:107B30005C3900203C39002050390020FC390020FD
:107B4000003A00201C3A002038B5041C00F0B8FDB3
:107B5000002C01D1164B1C68251D281C05F081F94D
:107B6000A36A002B03D0201C183005F07AF91148C5
:107B7000291C05F052F9104A1368013313600F4AAB
:107B800013680133136000F0A7FD0D4B1B68002B39
:107B90000CD0074B1B689C4202D100F085FD05E02C
:107BA00000F08EFDFFF7C0FE00F096FD38BDC04628
:107BB000E03900205C39002058390020003A0020CC
:107BC0005439002010B5041C00F07AFD002C01D1BE
:107BD000034B1C68E46A00F07FFD201C10BDC0460A
:107BE000E0390020F8B5041C0D1E032D00D9032533
:107BF00000F066FD002C01D1204B1C68626CAA428B
:107C000038D01E4B954209D9002118680E1C8442B9
:107C100009D01B68DB6A9D424E4104E01E68A61B2A
:107C2000714271410E1CE16A8A4200D1E562A3698A
:107C30006564002B02DB0422551BA56114234B4312
:107C40000F486269C318071C9A420FD1251D281CD2
:107C500005F007F90B4BE06A1A68904200D91860EA
:107C600014235843291C381805F0D7F8012E01D1E8
:107C700000F01AFD00F030FDF8BDC046E0390020EC
:107C8000883900201C3A0020064B42699A4206D1EE
:107C9000806A054B984202D04242424100E00022F5
:107CA000101C70473C390020E439002070B50028D2
:107CB00025D0134D2B68984221D0041C00F000FD04
:107CC000201CFFF7E1FF012817D1261D301C05F00D
:107CD000C8F80C4BE06A1A68904200D91860142367
:107CE0005843094B311C181805F097F82B68E26AC5
:107CF000DB6A9A4201D300F0D7FC00F0EDFC70BDC6
:107D0000E03900201C3A0020883900201FB50024EB
:107D10000948009401940294039408493822231CD2
:107D2000FFF73CFE012806D172B6054B1860054BE3
:107D30001C6000F063FC1FBDE97F0100DDFD010058
:107D400054390020F8390020024A136801331360C7
:107D50007047C046D839002010B500F0B1FC034B85
:107D60001C6800F0B9FC201C10BDC046F83900208A
:107D7000014B18687047C046183A0020024A136841
:107D8000C01810607047C046F8390020364BF7B570
:107D90001B68002B37D1354B1A6801321A601F68F7
:107DA000002F0BD1324A334B116818681060324AE9
:107DB0001960136801331360FFF7B6FD2F4E0024DE
:107DC00033689F420ED32A4B1A681268002A02D1E8
:107DD00001235B4205E01B68DB68DD686B689F423E
:107DE0001ED23360264B1B68DA6A14235343254A9C
:107DF000D358012B00D90124234B1B68002B09D138
:107E000003F0B9FF06E0204A002413680133136031
:107E100003F0B1FF1D4B1B68002B22D0012420E092
:107E20002B1D181C019305F01CF8AB6A002B03D026
:107E3000281C183005F015F8154BE86A1A689042AE
:107E400000D91860142358430E4B0199181804F0F8
:107E5000E4FF0B4BEA6A1B68DB6A9A42B3D3012446
:107E6000B1E7201CFEBDC046D8390020F8390020FB
:107E700050390020FC390020DC390020102000207F
:107E8000E03900208839002084390020203A002081
:107E90001C3A002038B500F013FC274B1A68013A51
:107EA0001A601B68002B01D0002441E0234B1B68A3
:107EB000002BF9D0224B1A68002A20D0DB68DC683E
:107EC000201C251D183004F0CCFF281C04F0C9FF2D
:107ED0001C4BE06A1A68904200D91860142358437A
:107EE000194B291C181804F098FF184BE26A1B68FC
:107EF000DB6A9A42DED30122154B1A60DAE7154C91
:107F00002368002B10D1124B1C68012CCCD100F03F
:107F1000CBFB0DE0FFF73AFF002802D001220C4B0B
:107F20001A602368013B23602368002BF2D1EAE743
:107F300000F0D2FB201C38BDD8390020183A0020B0
:107F4000E43900201C3A002088390020E039002064
:107F5000203A00208439002038B5051C0C1CFFF79E
:107F6000F3FE114B29681B680C198B4203D20022C7
:107F70008C4206D202E001228C4202D3A3429B41F2
:107F80005A422C60002A07D0084B1868043004F0CD
:107F900068FF201CFFF7DCFCFFF77CFF002801D105
:107FA00000F082FB38BDC046F8390020E0390020DF
:107FB00010B5041E02D100F077FB10E0FFF7C4FEFD
:107FC000074B1B68E418074B1868043004F049FF9E
:107FD000201CFFF7BDFCFFF75DFF0028EBD010BDB4
:107FE000F8390020E039002070B51D4C2368002BC3
:107FF0001ED0FFF7A9FE1B4D2E68FFF74BFF002E8A
:10800000F3D000F05DFBEB68DD68281D04F029FF6C
:10801000154A1368013B13602368013B236000F09D
:108020005BFB286B00F072FA281C00F06FFADCE7AB
:108030000E4B1B68012B01D900F036FB03F09CFEB0
:10804000FFF714FC0128D0D9FFF77EFEFFF70EFCE6
:10805000012801D900F0E6FBFFF71CFFC5E7C04689
:10806000583900205C390020183A00208839002057
:10807000F7B5051C0E1C171CFFF766FE1D4B0024F0
:108080001B689E4231D31C4B1E1C143B3C36019393
:108090006001311C28180122FFF700FC019B143EEF
:1080A00024189E42F4D1154B600119680222281849
:1080B000FFF7F4FB124B041960011968022228181B
:1080C000FFF7ECFB241860010E4904222818FFF783
:1080D000E5FB2418600128180B490322FFF7DEFB9B
:1080E0002418002F01D000233B60FFF7D3FE201C93
:1080F000FEBDC046183A00208839002050390020C3
:10810000FC3900205C3900203C390020144B10B5AC
:108110001A68144B002A01D001221EE01A601423B1
:108120001149124A086858438058002803D10B6847
:10813000013B0B60F3E70C686343D11848680833D0
:108140004068D3184860984201D143684B601423BB
:108150006343D2185368DA68054B1A6010BDC046F5
:10816000D8390020203A00201C3A0020883900200D
:10817000E0390020F8B5041C00F0A2FA194D002CDB
:1081800000D12C68271D381C04F06BFEA36A002B5D
:1081900003D0201C183004F064FE134E391C301C30
:1081A00004F03BFE00F098FA2A68104B1B689442DA
:1081B0000ED1002B02D000F077FA11E00C4A3168A2
:1081C0001268914201D12B600AE0FFF79FFF07E0A0
:1081D000002B05D000F074FAFFF7A6FB00F07CFA44
:1081E000F8BDC046E03900203C3900205439002059
:1081F000183A002038B50D1C0B4C2168183104F0DA
:1082000018FE2068043004F02CFE6B1C05D1216898
:108210000648043104F001FE04E0054B18682818F4
:10822000FFF796FB38BDC046E03900203C390020FE
:10823000F839002038B5C368DC68251C1835281CBF
:1082400004F00FFE114B12481B68002B0DD1251DA9
:10825000281C04F006FE0F4BE06A1A68904200D911
:108260001860142358430C4B1818291C04F0D5FD32
:108270000A4BE26A1B680024DB6A9A4202D9084B67
:1082800001341C60FFF750FB201C38BDD83900209A
:10829000E43900201C3A002088390020E039002011
:1082A000203A0020034B1B680360034B1B684360AC
:1082B0007047C046DC390020F839002070B50D1C2D
:1082C000041C00F0FDF90F4B002619682B685A1C9E
:1082D00013D00D4A266810686268B04202D00126A9
:1082E00091420AD2881A0126984206D2521AD3180D
:1082F0002B60201CFFF7D6FF002600F0EDF9301CA4
:1083000070BDC046F8390020DC3900200122014B45
:108310001A607047203A0020031E00D0186C704786
:108320000020094B1B6883420DD1084B1B68834218
:1083300009D1074B1868074B01381B68181A431EF0
:1083400098410223181A7047E4390020203A00208F
:10835000183A00203C390020014B18687047C0468D
:10836000E0390020F8B500282BD0164DC16A2B68E3
:10837000DB6A994225D28369002B04DB04222B6837
:10838000DB6AD21A826114234B430F4E4269F31801
:108390009A4213D1041C071D381C04F062FD2B689F
:1083A000D86A0A4BE0621A68904200D91860142318
:1083B0005843391C301804F030FD02E02B68DB6AAA
:1083C000C362F8BDE0390020883900201C3A002043
:1083D00038B5002801D100201FE0836CC26A416CCF
:1083E000013B83648A42F6D0002BF4D1041C051DA6
:1083F000281C04F036FD0423606C1B1AA361074B94
:10840000E0621A68904200D9186014235843044B64
:10841000291C181804F001FD012038BD1C3A002069
:10842000883900207FB50026294B06701A68041C85
:1084300002921868400100F05DF8051EB54245D073
:108440000299321CFFF714FE02900396039A029BD6
:108450009A4238D2039B00265B01EB181B7B013B41
:10846000DBB2032B01D81B4AD65C039B201C5B01AB
:10847000EB18596807F066FB201C07F06BFB062819
:1084800003DC202323540130F9E700232418237050
:10849000039B0399039A49016918898B5201009142
:1084A000AA1892685B010192EB181B69201C0A490B
:1084B000321C03F075FF201C07F04CFB039B2418B3
:1084C00001330393C2E7281C00F020F87FBDC046AB
:1084D000183A0020F1FD0100E2FD0100044B1A688A
:1084E000002A03D019688A6C01328A6418687047C0
:1084F000E039002010B5041CFFF726FC201CFEF715
:1085000055FA041CFFF7C6FC201C10BD10B5041C56
:10851000FFF71AFC201CFEF77FFAFFF7BBFC10BD2B
:1085200038B5051C0C1CFFF70FFC211C281CFEF79E
:10853000A8FA041CFFF7AEFC201C38BD70B5061C61
:108540000D1C141CFFF700FC291C221C301CFEF71C
:108550008FFA041CFFF79EFC201C70BD70B5061C32
:108560000D1C141CFFF7F0FB291C221C301CFEF70D
:10857000BAFA041CFFF78EFC201C70BD10B5FFF783
:10858000E3FB0020FEF7BAFA041C0120FEF7B6FA5E
:108590000419FFF77FFC201C10BD10B5041CFFF769
:1085A000D3FB201CFEF7C2FA041CFFF773FC201C4F
:1085B00010BD40DF704772B6FEE70000064A136840
:1085C0001868203080F30988022080F314883FBCAB
:1085D000AE4662B600BDC046E039002010B580242A
:1085E000031F64041C60043B19600349043B1960C9
:1085F000143B40381A6010BDB7850100FF2138B523
:10860000224B09041A681F200A43FF211A601A68C6
:1086100009060A43A1211A6001221D4BC9005A60B4
:10862000585000211B489A6001601B48C424016017
:10863000D12189005A50194840395A50A40005598F
:10864000174929408025ED01294301518021913CA2
:108650008902FF3C015101601A602F23C046C046C9
:10866000C046C046C046C046C046C046C046C046DA
:10867000C046C046C046C046013B002BEED1094A69
:108680001360FFF79BFF72B6FEE7C04620ED00E0E7
:1086900000100140243A0020C43B002000E100E02B
:1086A000FF00FFFF142000208022044B52051A60B7
:1086B000BFF34F8FBFF36F8F7047C04604ED00E0EC
:1086C00072B6044A136801331360BFF34F8FBFF3D0
:1086D0006F8F704714200020034A1368013B13601A
:1086E000002B00D162B6704714200020EFF31080F9
:1086F00072B67047002080F310887047EFF309804E
:108700000E4B1A6820381060F0C044464D4656465D
:108710005F46F0C008B572B6FFF7F8FC62B60CBC55
:10872000116808681030F0C8A046A946B246BB469A
:1087300080F309882038F0C81847C046E039002087
:108740007047000010B5FFF7D1FF154B041C5A6CA1
:10875000002A07D0002280205A64C2221149400218
:10876000920088505B68002B16D000210C4B59609A
:108770000D4B1A6801321A601A68292A08D8FFF7C7
:1087800005FB002805D08022084B52051A6000E046
:1087900019600120FFF7D4FF201CFFF7ACFF10BDCC
:1087A000FC10014000100140243A002004ED00E0DC
:1087B000C2210122074B89005A509A60A822013831
:1087C000D200985080223C3152025A5040395A50BF
:1087D0007047C0460010014070B50E4B0E4D0F4E55
:1087E000EC5830682A21001905F046F88023D2227F
:1087F0005B0292003160AB50403AAB50201CFFF757
:108800009FFF201C06F04AF8054905F02FFD05F0F2
:10881000A7F970BD0405000000100140243A0020B3
:1088200000007A3F10B5002823D0041CFFF778FD24
:1088300000281ED00F4B1A6892071AD51B681B0719
:1088400017D40D4B201E984200D9181CFFF7B0FF1B
:10885000FFF7AFFEFFF7C0FF041CFFF731FFC12396
:108860000121064A9B00D150201CFFF787FAFFF731
:1088700033FF10BDC43B002060EA0000001001403F
:1088800073DF704774DF70470123406818407047FA
:1088900038B5051CFFF7F6FF041E04D03C21054A3D
:1088A000FF3100F015FB01236A68201C9A436A60BF
:1088B00038BDC04698FE010038B5041C0D1E0D4B96
:1088C00000D11368002123608D4201D1183B196843
:1088D0006118084B002D00D153680B60AB0702D51F
:1088E000201C01F085FDEB0702D5201CFDF79EFF43
:1088F000201C38BD18FE010008B502210022FFF738
:10890000DBFF08BD08B50368143B1B68C018FFF700
:10891000F3FF08BD10B5041CFFF7EEFF201CFDF7A8
:1089200085FF201C10BD08B50368143B1B68C018E8
:10893000FFF7F0FF08BD08B50A1C0021FFF7BCFFD8
:1089400008BD0166704770B5456B041C0E1C002DF8
:1089500007D10C20FDF762FF291C60630C22FFF792
:10896000FDFD636B002B00D01E8070BD73B56B46A0
:10897000041CD9710733002902D0012203618281CE
:10898000261C201C5436338808302384A36D002114
:108990006362FEF7CBFB051E03D092210D4A00F067
:1089A00097FAA06D002804D0FDF740FF0023A365CF
:1089B0003380606B002803D0FDF738FF002363632A
:1089C000206B002803D0FDF731FF00232363281C10
:1089D00076BDC04698FE01000123F0B5041C426834
:1089E0009BB09A43626003A8FEF72EFF002803D0D5
:1089F000DB21574A00F06CFA039A63680221002ACF
:108A000003D00B4363601120A0E08B436360231C01
:108A1000251C48331A700193E264626466352B7832
:108A2000033B012B08D84B4B04A9186800F0FDFC50
:108A3000002801D005232B70271C287840370628F2
:108A400069D804F089FE595246332D0604000523E7
:108A50002B7000233B703F4B186800285BD0082325
:108A600006AE337133730AAB0693311C12ABB3609D
:108A700000F0D6FC002805D08021354A490000F0DE
:108A800027FA05E03379002B51D1337B002B4ED1EF
:108A9000012350222B70A3181A80283A5A803AE0FA
:108AA000231C05225C331A7003232B7004AB636410
:108AB00001233B70231C002250331A805A80221C51
:108AC0005C321378013BDBB21370002B23D10533EA
:108AD00009E0201C0521FFF749FF5022A3181A8046
:108AE000283A5A8001232B7015E0201C0021FFF743
:108AF0003DFF00233B702B70206E174905F0B6FB3D
:108B0000164905F0C1F905F02BF8231C50339A8A59
:108B1000188002331A80381CFFF7B2FE051E10D0F1
:108B200034210B4AFF3100F0D3F9281C0EE0022358
:108B3000019A201C13700421E664FFF717FF02233B
:108B4000A7E70123626813436360EEE71BB0F0BD43
:108B500098FE0100803A002000007A4400401C4446
:108B6000134B70B50366061C031C0025041C6433FC
:108B700040361D809D70291C301C1422FFF7EEFC2E
:108B8000231C201C52331D800A3B3570291C656450
:108B900038221D700830FFF7E1FC02232372054BD9
:108BA000A56523610123A3815434258070BDC0468F
:108BB00000007A44B9FE010010B5041C01F020FC4D
:108BC000044B201C1833236000236360FFF7C8FFA9
:108BD000201C10BD60FE010040688007C00F704778
:108BE00038B5041C0D1E01D1136801E0114B183378
:108BF000002123608D4201D1183B19686118002DB6
:108C000001D1D36801E00B4B18330B60002D00D06D
:108C1000094A111D201CFFF78EFEAB0702D5201C50
:108C200001F0E6FBEB0702D5201CFDF7FFFD201C41
:108C300038BDC04660FE010028FE010008B50221D3
:108C40000022FFF7CDFF08BD08B50368143B1B6881
:108C5000C018FFF7F3FF08BD10B5041CFFF7EEFFC7
:108C6000201CFDF7E3FD201C10BD08B50368143B74
:108C70001B68C018FFF7F0FF08BD08B50A1C0021EB
:108C8000FFF7AEFF08BD0020704701207047704716
:108C90000020704708B5054B1B68002B04D01A68EC
:108CA0000178126A181C904708BDC046283A002077
:108CB00008B52521014A00F00BF908BD20FF01008D
:108CC0000B8810B50C1C102B02D1083003F0D8F81B
:108CD000201CFEF719FB10BDF0B50C1C051C8DB057
:108CE0001E1C12AB1B88171C009313AB1B8801932F
:108CF00014AB1B78029315AB1B88039301F080FB28
:108D00001B4B1C491833221C04312B60281C00F01B
:108D1000D1FC281C184B08301C332B6003F0CAF818
:108D20000021164B05AC1960154B201C1C221D6040
:108D3000FFF714FC009B201CA3606B461B79059772
:108D400023736B469B896660E3816B461B7A2374B1
:108D50000C4B63610C4BA361FEF79CFA002803D017
:108D600044210A4A00F0B4F8281C0DB0F0BDC046FA
:108D700088FF010000FF0100C0FE0100903B0020C1
:108D8000283A0020958C0100B18C010020FF0100E1
:108D900070B5041C0E1C151C002901D1136801E0DC
:108DA000204B1C3300222360964201D11C3B1A68E1
:108DB000A218002E01D12B6901E01A4B1C3313605D
:108DC00000239E4202D12368183B1B68E318002E43
:108DD00001D16A6901E0134A1C321A60FEF78EFA6B
:108DE0000022201C104B08301A60104BA36001F0C9
:108DF000FFFA291D002E01D00D490431201C00F07E
:108E0000ABFCB30707D50A49201C1831FFF793FDC7
:108E1000201C01F0EDFAF30702D5201CFDF706FD3A
:108E2000201C70BDC0FE0100283A0020480E020040
:108E300000FF010008B502210022FFF7A9FF08BDCD
:108E400010B5041CFFF7F6FF201CFDF7EFFC201CFB
:108E500010BD000038B5094B1D68002D0CD0041C56
:108E600083680834DB69201C9847A84204D9201C79
:108E700003F006F8FEF7D0F938BDC046903B00205D
:108E800076DF704760DF704766DF704711DF70473D
:108E90007030034B0088C018431E9841C0B2704721
:108EA0000100FFFF002383607047704708B504305E
:108EB000FFF792FD08BD08B5031C6A331B78002B31
:108EC00002D101F087FB02E00430FFF785FD08BD09
:108ED00008B5034B011C186803681B6A984708BD56
:108EE0007C3A002008B5031C0A1C0248191CFFF735
:108EF000EFFF08BDEFBEADDE08B5064950220023E6
:108F000003F058FB002803D04C21034AFFF7E0FF91
:108F100008BDC0462C3A00200D0002000B6803601B
:108F2000183B4A681B68C2507047000010B5041C0B
:108F300001F066FA014B201C236010BD18FE0100F1
:108F400038B50D1C041C023D081CFEF7B7FB012DB3
:108F500008D80434201CFFF73FFE002802D0201C54
:108F6000FFF73AFD38BD000008B5034B011C186837
:108F7000FFF7E6FF08BDC0467C3A002037B5051C68
:108F800068460C1CFFF780FF002805D16B461B7854
:108F90002B706B469B8823803EBD0000F0B591B0DE
:108FA000071C0E1C151C6846402200211C1CFFF7E4
:108FB000D5FA234B1A68234B9A420AD068462249B5
:108FC00003F04EFD02A8214903F04AFD04A8204900
:108FD0000FE0002F03D06846391C03F041FD002E3E
:108FE00003D002A8311C03F03BFD002D03D0291C47
:108FF00004A803F035FD002C03D006A8211C03F0C3
:109000002FFD169B002B03D008A8191C03F028FD88
:10901000179B002B03D00AA8191C03F021FD112275
:10902000189B68460C93199B0E930FAB1A703D2347
:1090300000226B441A7003F031FC11B0F0BDC04641
:10904000F85F010020112103FDFF0100F0FF010086
:10905000B0FF010030B587B005AC201C0021012213
:10906000FFF77CFA01222378201C93432370FFF73B
:1090700009FF041E01D0632106E0164803F0BEFA82
:10908000041E05D0201C6821134AFFF721FF1DE0B4
:10909000124803F0BDFA051E06D0281C6E210E4AA8
:1090A000FFF716FF281C12E0FEF77EFB0C4B041C9A
:1090B0001A680C4B9A4209D00095019502950395C8
:1090C000281C291C2A1C2B1CFFF768FF201C07B03A
:1090D00030BDC046E99301000D000200698F010018
:1090E000F85F01002011210338B5041C0D1E114B3F
:1090F00000D11368002123608D4201D1183B19680B
:1091000061180C4B002D00D1D3680B600A49002D6B
:1091100000D1111D201CFFF70EFCAB0702D5201C4F
:1091200001F066F9EB0702D5201CFDF77FFB201C40
:1091300038BDC046D00002008400020008B50A1CF9
:109140000021FFF7D1FF08BD08B502210022FFF77B
:10915000CBFF08BD08B50368143B1B68C018FFF7B8
:10916000F3FF08BD10B5041CFFF7EEFF201CFDF750
:109170005DFB201C10BD036810B5143B1B68C418B0
:10918000201CFFF7E1FF201CFDF750FB201C10BD49
:1091900070B5041C251C261C01F032F91549201C51
:1091A0000431FFF7BBFE144B6C36183308C5281C7E
:1091B000FFF702FD301C01F023F91049301CFFF7C6
:1091C000ADFE0F4B0836E366301C01F0C5FA201CDB
:1091D0008C3000F0EDFF0B4B01221C600023EB678D
:1091E000231C52427033301C1A8001F01AFA201CE2
:1091F00070BDC04630000200400002008400020042
:10920000D00002007C3A002070B5041C0E1C151C16
:10921000002901D1136801E01B4B183300222360A1
:10922000964201D1183B1A68A218002E01D1EB68B2
:1092300001E0154B183313600022144B1A60FFF73E
:1092400025FE201C8C3001F053F8201C743001F0F6
:10925000F9F9201C6C30FFF777FF201DFFF7EEFCBB
:10926000291D002E01D00A490431201CFFF763FBA1
:10927000B30702D5201C01F0BBF8F30702D5201C70
:10928000FDF7D4FA201C70BD400002007C3A00209B
:109290003000020008B502210022FFF7B5FF08BD2B
:1092A00010B5041CFFF7F6FF201CFDF7BFFA201CC9
:1092B00010BD000038B5094B8C301A68084B0D1CE6
:1092C000041C9A4204D1201C291C00F0A2FF03E0D8
:1092D00000F016FF0428F6DD38BDC046F85F010037
:1092E0002011210310B58C30041C00F044FF011E36
:1092F00002D0201C00F0ACFF10BD70B58C300E1CED
:10930000041C00F030FF051E0CD0291C201C00F0AE
:109310000CFF0368311CDB699847201C291C00F0F6
:1093200026FFF0E770BD000038B50D1C041CFFF7E8
:10933000E4FF2B88112B27D002D8102B05D050E04A
:10934000192B30D0552B3ED04BE0231C201CAA8873
:1093500070331A80A91D84300722FFF7EFF8231D10
:10936000DB6F002B03D0201C0021984703E023680B
:10937000201C9B699847A36F002B32D0201C012131
:10938000743001F0C5F92CE00122231C52427033E5
:109390001A80231DDB6F002B02D0201C01210BE063
:1093A0002368DB690CE0AB79002B1AD1231DDB6F3E
:1093B000002B03D0201C0221984712E023685B6A2F
:1093C000201C98470DE0AB79002B0AD1703420881F
:1093D0001321FFF755FD002803D0AE21014AFFF706
:1093E00077FD38BD0D00020010B5041CFEF7ACFC83
:1093F000034B211C1868FFF797FFFEF74BFD10BDCC
:109400007C3A002038B50368041C5B690D1C984742
:10941000002804D1201C291C743001F049F938BD02
:1094200008B5103003F04EF908BD08B50C3003F054
:1094300093F908BD76DF704777DF704778DF7047B4
:109440007ADF70477CDF7047F0B587B01E1C0CAB2D
:109450001B8803AD00930DAB1B88081C01931123DF
:109460000C1C171C2B7006F075FB211C82B2281CEB
:10947000FFF7E8FF002803D01A21164AFFF728FD5E
:109480001549381C04F0F2FE144904F0FDFC04F008
:1094900067FB04AC20801049301C04F0E7FE0F4944
:1094A00004F0F2FC04F05CFB6B461B886080A38038
:1094B00001980A2104F0EAF9E080201CFFF7C0FFC0
:1094C000041E03D02321034AFFF702FD201C07B02E
:1094D000F0BDC046F000020000007A4400409C4409
:1094E00010B5081CFFF7AAFF041E03D02D21024A65
:1094F000FFF7EEFC201C10BDF000020010B5081CA8
:10950000FFF79AFF041E03D03321024AFFF7E0FC65
:10951000201C10BDF000020010B5074B1B68703313
:109520001888FFF787FF041E03D03A21034AFFF78C
:10953000CFFC201C10BDC0467C3A0020F000020089
:1095400083DF704784DF7047034B4089C018431E98
:109550009841C0B27047C0460100FFFF08B5C3681C
:109560000172002B00D0984708BD10B50B88041C71
:10957000112B08D01A2B0FD0102B12D188886081A4
:10958000FFF7DEFF0DE04089FFF7DCFF01235B42C0
:1095900063818033237204E0036889791B6A49B2CE
:1095A000984710BD38B5041C0D1C00F029FF0A4B6C
:1095B0000A49183323602A1C201C043100F07AF871
:1095C000074B201C1C3323607F232372803B638165
:1095D0000023E36038BDC04610010200780102009C
:1095E0003801020070B5041C0E1C151C002901D1A5
:1095F000136801E01E4B1C3300222360964201D108
:109600001C3B1A68A218002E01D12B6901E0184BEF
:109610001C33136000239E4202D12368183B1B6851
:10962000E318002E01D16A6901E0114A1C321A6068
:109630006089104B984201D0FFF784FF291D002E4E
:1096400001D00D490431201C00F086F8B30707D57E
:109650000949201C1831FFF76EF9201C00F0C8FEE4
:10966000F30702D5201CFDF7E1F8201C70BDC046B1
:1096700038010200FFFF00007801020008B5022156
:109680000022FFF7AFFF08BD10B5041CFFF7F6FF7F
:10969000201CFDF7CBF8201C10BD62DF70470000D6
:1096A00008B5034B186803685B69984708BDC04656
:1096B0007C3A002010B5041C0B6803601C3B486812
:1096C0001B68E05023688968183B1B68101CE15038
:1096D0006260211CFFF7EEFD201C10BD38B5041C94
:1096E0000D1E01D1136801E0194B1C3300212360CA
:1096F0008D4201D11C3B19686118002D01D15368BE
:1097000001E0134B1C330B6000239D4202D1236800
:10971000183B1B68E318002D01D1926801E00C4A48
:109720001C321A606068211CFFF7DCFDAB0707D50F
:109730000849201C0C31FFF7FEF8201C00F058FEF1
:10974000EB0702D5201CFDF771F8201C38BDC04680
:10975000F0010200D801020008B50A1C0021FFF741
:10976000BDFF08BD13B56B46DC1D0023201C237014
:10977000FFF793FF002803D12378012B00D8207036
:10978000207816BD408B7047007F7047006A704795
:10979000704770477047704710B5041C0368DB6A58
:1097A0009847201C10BD10B5041C03689B6A98479D
:1097B000201C10BD08B503689B6A984708BD08B512
:1097C00003689B6A984708BD38B50368041CDD6AC6
:1097D0000B68081C9B6A9847011C201CA847201C8A
:1097E00038BD01207047000008B503681B69984721
:1097F00008BD08B4024B9C46243808BC6047C046EC
:10980000E997010008B503680121DB6D984708BDA1
:109810000189054A031C0020914203D0883318684F
:10982000012318407047C046FFFF000010B50368D1
:10983000041C00290CD11B69984700280CD0221C5D
:109840000221883213680B4206D10B431360236850
:109850005B6E201C984702E00A20FDF739FA10BD24
:1098600008B4024B9C46243808BC60472D98010080
:1098700038B5041C0D1E194B00D11368002123605C
:109880008D4201D11C3B19686118144B002D00D189
:1098900013690B6000239D4202D12368183B1B68AB
:1098A000E3180E49002D00D1516919600C49002DB3
:1098B00000D1111D201CFFF74FFFAB0706D5201C60
:1098C0000849FFF738F8201C00F092FDEB0702D59D
:1098D000201CFCF7ABFF201C38BDC046140F020053
:1098E000D40F0200E80F020008B50A1C0021FFF7A0
:1098F000BFFF08BD08B502210022FFF7B9FF08BD70
:1099000008B50368143B1B68C018FFF7F3FF08BDD8
:1099100010B5041CFFF7EEFF201CFCF787FF201C8E
:1099200010BD036810B5143B1B68C418201CFFF75A
:10993000E1FF201CFCF77AFF201C10BDF0B593B0AE
:1099400004AE071C0391301C00210322FEF706FE23
:109950000122102313433370102313437370B37821
:1099600005320BAC9343043A1343201C00211A32F6
:109970000025B370FEF7F2FD10222378291C134353
:1099800005A80D3A666123706560E5602561A561F3
:10999000FEF7E4FD01221023134302AA13730122F0
:1099A0001023134302AA5373937B06229343043A72
:1099B000134306329343083293430F3A06AE1343E0
:1099C00002AA9373291C301C1422FEF7C7FD05ABB5
:1099D000736001233A1C33811333B38178323B68BF
:1099E000758100929D6A381C0399221C331CA8477C
:1099F00013B0F0BDF0B5071C93B00BAC0391201C65
:109A000000211C22FEF7AAFD3B1C01220421002597
:109A1000082688331B6805A89B0813409A00237802
:109A200065608B4313433343291C03222370E56095
:109A300025616561A561FEF791FD1022012302A950
:109A400013430B73012313434B738B7B06218B430F
:109A500004390B43B34393430F3A06AE134302AAB0
:109A60009373291C301C1422FEF778FD05AB73603C
:109A700001233A1C33811333B38180323B687581F3
:109A800000929D6A381C0399221C331CA84713B00E
:109A9000F0BD0000F0B5041C0F1C85B000930AABAC
:109AA0001B88161C01930BAB1B8802930CAB1B8805
:109AB000039300F0A5FC1D4B1D4D18332360291D99
:109AC0003A1C201C03F0BDFC201C291C0D9A1C31E3
:109AD0000E9B243001F061FB164B201C1A1C9C339A
:109AE0001C32226063626C3000F036FE221C211CA6
:109AF00000238C31883213600B804B609E4201D072
:109B000004331360201C0099019A03F082FC0028A2
:109B100009D1201C0399FFF76DFF002803D1201CF9
:109B20000299FFF70BFF201C05B0F0BDF004020006
:109B3000F80202007003020070B5041C261C903667
:109B400003F00FFC3068002801D0FCF76FFE231CE7
:109B50000025201C88331D609D802C30291C356019
:109B600000F0D6FD201C291C383000F0D1FDA06A81
:109B7000A84203D00368291CDB69984770BD38B53B
:109B8000041C221C7C32CB881288881D9A4224D166
:109B9000028B022A21D1231C0131C97F013A88336B
:109BA000C90716D51968251C0A431A60002290358A
:109BB0009A802B68934203D11420FCF733FE28606F
:109BC000236F002B14D0201C00216C3000F0A0FD6E
:109BD0000EE01968914319600AE0221C8032128855
:109BE0009A4205D12368028B20311B6E201C9847B6
:109BF00038BD38B5041C54300D1C02F08FFFA06A2C
:109C0000002806D02B781B2B03D103680021DB69C9
:109C10009847201C0121383000F07AFD38BDF7B597
:109C2000041C0026271C90373B68002B34D0FFF71C
:109C300099FD002830D0231C8C331D88002D08D1BD
:109C4000201C39684430142202F057FF85B2002DE1
:109C500015D00122211C236800925B6B201C9C46BE
:109C600078312B1C3A68E047231C8C33002801D143
:109C70001D8011E00022AE191A80B6B2D2E7002E84
:109C800005D1221C02238832116899431160201CDF
:109C900000212C3000F03CFD301CFEBD38B5036FB8
:109CA000041C0D1C002B02D16C3000F0BAFC206F9C
:109CB00000280AD02368201C1B699847002804D17B
:109CC000201C291C6C3000F0F3FC38BD08B4024B9A
:109CD0009C46243808BC60479D9C010070B5041C5C
:109CE0000E1C151C002901D1136801E0284B1C3300
:109CF00000222360964201D11C3B1A68A218002E54
:109D000001D16B6A01E0224B1C33136000239E4299
:109D100002D12368183B1B68E318002E01D1AA6A00
:109D200001E01B4A1C321A60002E01D1EB6A01E0EF
:109D3000174B9C336362231C90331868002801D0B2
:109D4000FCF774FD201C6C3000F07CFC201C291CEE
:109D50002430002E00D00F491C3101F08DFA291D4E
:109D6000002E01D00B490431201CFFF7BDFDB307C5
:109D700007D50849201C3031FEF7DDFD201C00F01E
:109D800037FBF30702D5201CFCF750FD201C70BDEB
:109D900070030200F802020008B502210022FFF75A
:109DA0009DFF08BD08B4024B9C46243808BC6047A0
:109DB000999D010010B5041CFFF7EEFF201CFCF775
:109DC00035FD201C10BD000008B4024B9C46243811
:109DD00008BC6047B59D0100012070470120704715
:109DE000704738B50368041C5D6C0B68081CB433FD
:109DF0001B689847011C201CA84738BD08B50A1CE1
:109E00000023024901F0D6FE08BDC04690050200BD
:109E100010B5041C201C183000F0CCFF002804D121
:109E2000FA204000FCF754FFF4E710BD08B51830E5
:109E300000F0C0FF08BD000038B5041C0D1C00F088
:109E4000DFFA00220B49131C201C043101F0C0FF73
:109E5000201C094B291C18332360183000F07CFFAC
:109E6000201C583000F086FC044B6561201C1C60EF
:109E700038BDC046F005020018050200843A0020F3
:109E800010B5041CFA208000FCF722FF2368201C78
:109E9000DB6A984700280AD0606903681B6A984704
:109EA0000028EFD0201C183000F0E9FFEEE710BDCD
:109EB000F8B5041C18300F1C161C00F07BFF00289E
:109EC0000DD0251C5835281C00F009FC201C391C1D
:109ED0002C30321C01F094F8281C00F033FCF8BD43
:109EE0000EB433B5041C183000F064FF00280ED007
:109EF000251C5835281C00F0F2FB201C06AA2C302B
:109F00000599019201F07CF8281C00F01BFC33BC81
:109F100008BC03B018470EB433B5041C183000F069
:109F200049FF002812D0251C5835281C2C3400F07D
:109F3000D6FB06AA0599201C019201F061F8201CAD
:109F4000012103F087FB281C00F0FCFB33BC08BC9C
:109F500003B0184770B5041C18300E1C00F02AFF1F
:109F6000002810D0251C5835281C2C3400F0B7FBD5
:109F7000311C201C01F06AF8201C012103F06AFB4F
:109F8000281C00F0DFFB70BD70B5041C18300E1CDF
:109F900000F010FF00280DD0251C5835281C00F0BB
:109FA0009EFB201C04492C30321C01F039F8281C7F
:109FB00000F0C8FB70BDC0469605020070B5041CD9
:109FC00018300E1C00F0F6FE002814D0251C583561
:109FD000281C00F084FB301C05F07AFC2C34021C99
:109FE0000B1C201C01F058F8201C012103F032FB4F
:109FF000281C00F0A7FB70BD70B5041C18300D1CA8
:10A0000000F0D8FE002816D0261C5836301C00F070
:10A0100066FB201C2C300D2D07D0E9B203F0DCFAD2
:10A02000036805211B6F984702E0012103F012FB32
:10A03000301C00F087FB281C70BD000070B5041CAC
:10A040000E1C151C002901D1136801E0154B1833B3
:10A0500000222360964201D1183B1A68A218002EF4
:10A0600001D1EB6801E00F4B1833201C136058300E
:10A0700000F0FAFA201C183000F0F2FE291D002E24
:10A0800001D009490431201C01F060FEB30702D55C
:10A09000201C00F0ADF9F30702D5201CFCF7C6FB2D
:10A0A000201C70BD18050200F005020008B50A1C4E
:10A0B0000021FFF7C3FF08BD08B502210022FFF70A
:10A0C000BDFF08BD08B50368143B1B68C018FFF747
:10A0D000F3FF08BD10B5041CFFF7EEFF201CFCF7D2
:10A0E000A5FB201C10BD08B50368143B1B68C018F5
:10A0F000FFF7F0FF08BD08B50368DB6A984708BDA5
:10A10000406970474069431E1843C00F7047436958
:10A11000002B01D0C3689B68181C70474369002B53
:10A1200001D003699B68181C70470B1E03D042695D
:10A13000131E00D08B68181C704708B5031C4069BB
:10A14000002804D01A68181C926BD968904708BD83
:10A1500008B5031C4069002804D01A68181C926BCB
:10A160001969904708BDC068704700697047486822
:10A1700070470868704738B50368041C1B6C0D1CD9
:10A180009847011E07D08B68AB4204D02368201C7F
:10A190009B6C9847F5E7081C38BD08B5081CFCF710
:10A1A00045FB08BD08B50C20FCF738FB08BD0000D6
:10A1B00010B5041C00F024F9201C054B083308C01E
:10A1C00000F0D8FA0023201CE3602361636110BD16
:10A1D00000060200F8B5051C0C200F1CFCF71EFB46
:10A1E000041C2E1D301C00F07AFA6B69A760002B4E
:10A1F00003D0EA681460626001E02C6163600022B1
:10A200000133EC60301C22606B6100F09BFA201C73
:10A21000F8BDF8B5051C0C200F1CFCF7FFFA041C58
:10A220002E1D301C00F05BFA6B69A760002B03D079
:10A230002A695460226001E0EC602360002201334F
:10A240002C61301C62606B6100F07CFA201CF8BD50
:10A25000F8B50E1E1ED00C1C071D051C381C00F086
:10A260003EFA2368B6686268002B01D1EA6000E01C
:10A270005A606268002A01D12B6100E013606B69AB
:10A28000281C013B6B612B68211C5B6E9847381CB6
:10A2900000F058FA301CF8BDF7B5051C061D301C3F
:10A2A0000F1C019200F01BFA6B69002B1CD0EC68AC
:10A2B000002C16D063680093002F0BD0019BA06880
:10A2C000002B05D0002805D00368DB68984701E023
:10A2D000FCF7ACFA2B68211C5B6E281C9847009C8D
:10A2E000E6E7EC602C616C61301C00F02BFAF7BDE6
:10A2F000002110B5041C074B0A1C08330360FFF74C
:10A30000CBFF201D00F0B0F9201C00F071F8201CDC
:10A3100010BDC0460006020010B5041CFFF7E8FFA0
:10A32000201CFCF783FA201C10BDF7B5051C0E1E7F
:10A33000019218D00C20FCF771FA041C2F1D381C58
:10A3400000F0CDF9019BA3603368002B00D05C6066
:10A3500023606B69666001333460381C6B6100F008
:10A36000F1F9201C03E0036801999B699847FEBD41
:10A37000F7B5051C0E1E019218D00C20FCF74EFA02
:10A38000041C2F1D381C00F0AAF9019BA360736800
:10A39000002B00D01C6063606B6926600133746021
:10A3A000381C6B6100F0CEF9201C03E003680199B2
:10A3B0009B699847FEBD70B54469002C16D0041CFB
:10A3C000061D301C0D1C00F08AF90023E468002CE7
:10A3D00009D0AB4204D1301C00F0B4F9A46805E008
:10A3E00064680133F3E7301C00F0ACF9201C70BD49
:10A3F000704710B5041CFCF719FA201C10BD0000B2
:10A40000014B083303607047700602000079431E59
:10A410009841C0B270470368103B1B68C0180079B0
:10A42000431E9841C0B2704738B5A0240325037974
:10A43000E405C133FF339B001D51012A19D0002AC6
:10A440000CD0022A21D1A022E02480250379D20554
:10A450009B009B18E4001A59AD0014E0A022E024F0
:10A46000C0250379D2059B009B18E4001A59ED0022
:10A4700009E0A0220379D2059B009B18E022D200BC
:10A480009C589C5001E02A431A5103689B699847E5
:10A4900038BD00000123A0220079D20583400029A5
:10A4A00002D0A121C90000E0014953507047C046C5
:10A4B0000C050000A223A022DB00D2050079D358AE
:10A4C000C340181C012318407047000010B5A0239A
:10A4D00004790120064ADB059A58011CE240A1409C
:10A4E000024202D1A122D20000E0024A995010BDDE
:10A4F000040500000C0500000379A020C005002A17
:10A5000009D0C133FF339B00032901D1054A00E084
:10A51000054AC25004E0C133FF3389009B00C1509B
:10A520007047C0460C0003000400020038B5041C4C
:10A530000D1CFFF765FF0549201C043103F0CAF824
:10A54000034B25711833201C236038BDF006020030
:10A55000B006020038B5041C0D1E01D1136801E0DD
:10A56000114B1833002123608D4201D1183B19682B
:10A570006118002D01D1D36801E00B4B18330B603B
:10A58000002D00D0094A111D201C03F0DEF8AB0796
:10A5900002D5201CFFF72CFFEB0702D5201CFCF78F
:10A5A00045F9201C38BDC046B0060200F006020086
:10A5B00008B502210022FFF7CDFF08BD10B5041C2D
:10A5C000FFF7F6FF201CFCF731F9201C10BD34DF2B
:10A5D0007047000008B500F08FFDFFF7F8FF002876
:10A5E00003D04121014AFEF773FC08BD00070200B9
:10A5F0004068431E9841C0B270478068704770B58C
:10A60000041C40680E1C151C002801D002F059FEE5
:10A61000301C291C02F005FD6060431E9841C0B249
:10A6200070BD10B5041C4068002801D002F049FE3E
:10A6300000210322012002F0D3FC6060431E9841F8
:10A64000C0B210BD074B10B50833041C036040684E
:10A65000002801D002F035FE201CFFF7C9FE201CA7
:10A6600010BDC04640070200074B10B50833041C5C
:10A6700003604068002801D002F023FE201CFFF791
:10A68000B7FE201C10BDC0461807020010B5041C00
:10A69000FFF7D8FF201CFCF7C9F8201C10BD10B52F
:10A6A000041CFFF7E1FF201CFCF7C0F8201C10BDC4
:10A6B00038B545682B1E10D00A1C00218368041C85
:10A6C000013383600B1C281C02F071FD431E5A42AB
:10A6D0005A41D3B2A268013AA260181C38BD406842
:10A6E00008B5002805D0002101220B1C524202F0BF
:10A6F0005EFD08BD08B54368181E08D00A1C00217D
:10A700000B1C02F054FD013843425841C0B208BD51
:10A7100007B54068002811D00B1E0CD0002301A9FA
:10A72000019302F01CFD019B002B07D08022044BFB
:10A7300052051A6002E01A1C02F07DFC07BDC046FB
:10A7400004ED00E0406808B5002804D000210A1C90
:10A750000B1C02F070FC08BD10B5041CFFF750FE86
:10A76000034B201C0833236000236360A36010BDEB
:10A770004007020010B5041CFFF742FE044B012005
:10A780000833236002F0C6FC6060201C10BDC04688
:10A790001807020008B503681B69984708BD08B58B
:10A7A0004830008802F020FB08BD10B5041C02F000
:10A7B0000FFB201C00F0E7FC10BD13B56B46DC1D41
:10A7C000201C02F007FB031C0020834204D12078E8
:10A7D000013843425841C0B216BD000010B503789D
:10A7E000032B0AD0042B0ED1074B02791B68196882
:10A7F000181CCC6E0121A04705E0034B012118680D
:10A800000368DB6D984710BD883A002070B5041CC2
:10A810000E1C151CFFF7F4FD0949321C2B1C201CD3
:10A82000043100F0BAFC074B221C183323600023CC
:10A8300048321380E364044B201C1C6070BDC0468A
:10A84000F807020070070200883A002070B5051C66
:10A850000E1C141C002901D1136801E0134B18339E
:10A8600000222B60964201D1183B1A68AA18002ECC
:10A8700001D1E36801E00D4B18331360281CFFF78A
:10A880008EFF211D002E01D009490431281C00F043
:10A89000F3FCB30702D5281CFFF7AAFDF30702D586
:10A8A000281CFBF7C3FF281C70BDC04670070200C0
:10A8B000F807020008B502210022FFF7C7FF08BD14
:10A8C00010B5041CFFF7F6FF201CFBF7AFFF201CA0
:10A8D00010BD000030B589B00791511E8A41051C9A
:10A8E00005AC23710C9B03A863700D9B62712370F0
:10A8F0000E9BD9B20F9BA170E370FFF717FE03A860
:10A9000000210122FFF790FD281C00214830018022
:10A91000064A00900323201C02F08EF9041C03A8B1
:10A92000FFF746FE201C09B030BDC046DDA7010080
:10A9300070B5041C0D1C3030111C161C02F0AAF856
:10A940006068002805D01B2E03D10368291CDB6931
:10A950009847201C291C1430FFF7DAFE70BD37B56C
:10A96000041C002911D06B46DD1D2030291C02F08B
:10A97000A3F8002819D0201CE36C08305B005B08AA
:10A98000E3640121FFF7C4FE12E0C36C002B0FDB70
:10A990006B46DD1D2030291C02F08EF8002807D1FF
:10A9A0008023E26C1B061343E364287802F0EEF97F
:10A9B00037BD704770470000143010B5041C0C49B7
:10A9C00002F011FE201C0B4902F00DFE201C0A496A
:10A9D00002F009FE201C094902F005FE201C08496E
:10A9E00002F001FE036801211B6F984710BDC046AD
:10A9F000A8080200D308020006090200310902007B
:10AA00005C09020008B50449143002F0ECFD03684B
:10AA100005211B6F984708BD8609020038B5041C44
:10AA2000051C14340F49201C02F0DDFD0E49201CCA
:10AA300002F0D9FD0D49201C02F0D5FD201C0C4967
:10AA400002F0D1FD6B68DB0703D5201C094902F039
:10AA5000CAFD201C084902F0C6FD201C074902F06F
:10AA6000C2FD38BD9C090200B6090200CD090200F2
:10AA7000ED0902000C0A02002A0A0200470A02003D
:10AA8000143010B5041C044902F0ADFD201C03492C
:10AA900002F0A9FD10BDC0466C0A0200741002004D
:10AAA00008B50349A022002301F084F808BDC04680
:10AAB000710A020073B514302B49041C02F093FD97
:10AAC000036801215B6D984703682E21DB6C984772
:10AAD000036800215B6D984703682E21DB6C984763
:10AAE000036807215B6D98472049201C02F07BFD1D
:10AAF000036803215B6D98471D49201C02F073FD1C
:10AB0000036801211B6F98471A49201C02F06BFD56
:10AB1000036819491B6D9847036801211B6F98470B
:10AB2000164B1B68002B0ED06B465E1D9D1D301C06
:10AB3000291CFEF723FA002805D132782B88201C27
:10AB40000F4900F06DFA0F4B0F491B68201C1A0AC1
:10AB5000DBB200F065FAFCF7D7F80C49021C201CA8
:10AB600000F05EFA73BDC046770A0200870A020051
:10AB70008B0A0200980A0200A80A02007C3A002010
:10AB8000AF0A020000C20300CB0A0200DB0A020087
:10AB900038B50849143002F026FD0368041C1D6E08
:10ABA000FDF7ECFC011C201CA847036802491B6D43
:10ABB000984738BDE90A0200FF0A020038B50B6861
:10ABC000051CAC330C1C081C1B6852499847002814
:10ABD00002D02B68DB6C8DE02368201CAC331B6833
:10ABE0004D499847002800D092E02368201CAC33E0
:10ABF0001B684A499847002800D089E02368201C38
:10AC0000AC331B6846499847002800D080E0236891
:10AC1000201CAC331B6843499847002802D02B689E
:10AC20005B6C67E02368201CAC331B683E49984787
:10AC3000002802D02B689B6C5CE02368201CAC339E
:10AC40001B683A499847002862D12368201CAC331E
:10AC50001B683749984700285AD12368201CAC3319
:10AC60001B6834499847002852D12368201CAC3314
:10AC70001B683149984700284AD12368201CAC330F
:10AC80001B682E499847002842D12368201CAC330A
:10AC90001B682B49984700283AD12368201CAC3305
:10ACA0001B6828499847002802D02B681B6D21E0BB
:10ACB0002368201CAC331B682349984700281CD10B
:10ACC0002368201CAC331B6820499847002814D106
:10ACD0002368201CAC331B681D499847002817D1F6
:10ACE0002368201CAC331B681A49984700280FD0F2
:10ACF0002B685B6D281C98470AE02B68281C1B6D8D
:10AD000098472B68281C9B6B98472B681B6CF1E7B6
:10AD100038BDC046070B02000B0B0200100B0200EF
:10AD2000150B02001A0B02001F0B0200240B02007D
:10AD30002C0B0200320B0200350B0200380B020014
:10AD40003B0B02003F0B0200450B020080FD01009F
:10AD50004A0B020090050200F8B5041C0E1CFFF718
:10AD60004FFB0022251C1149131C0431201C01F04B
:10AD70002FF80F4B143518332360281C02F09AFC6F
:10AD8000201C012720212C3000F02EFE6368281C97
:10AD9000BB43311C321C6360A66202F074FB281CAA
:10ADA000391C02F07BFB201CF8BDC046A80B02003A
:10ADB000B80B020040688007C00F704708B5031C3D
:10ADC0005A680020920703D5186A03681B699847E0
:10ADD00008BD000070B5041C0E1C151C002901D113
:10ADE000136801E01B4B183300222360964201D107
:10ADF000183B1A68A218002E01D1EB6801E0154B30
:10AE0000183313606368DB0705D5A06A002802D0F9
:10AE10000368DB689847201C2C3000F0C1FD201C23
:10AE20000D4B14306361FFF7E3FA291D002E01D0AA
:10AE30000A490431201C00F089FFB30702D5201C09
:10AE4000FFF7D6FAF30702D5201CFBF7EFFC201C16
:10AE500070BDC046B80B020088080200A80B0200B3
:10AE600008B502210022FFF7B5FF08BD10B5041C8C
:10AE7000FFF7F6FF201CFBF7D9FC201C10BDF8B52E
:10AE8000041C03681B6D98472368201C9B6B984724
:10AE90002368201C1B6C9847261C1436301C02F0BB
:10AEA000F5FA226800281CD0251CD36B2C35201CF9
:10AEB00098470021281C00F0F0FA071C281C00F01D
:10AEC000E9FA391C021C301C02F0EAFA281C00F0D6
:10AED000F0FA0028E0D02368201C5B6B291C9847FF
:10AEE000DAE702236168201C99436160936D9847FB
:10AEF000F8BD000010B586B0041CFCF739FF302304
:10AF00004343191C01A8023100F06EFD01A8002185
:10AF100000F0C3FA1434002813D0002101A800F077
:10AF2000BCFAFDF77FFA01A800F0C3FA0949201C1A
:10AF300002F059FB002101A800F0AFFA011C201C0F
:10AF400001E0201C044902F04EFB01A800F028FD9E
:10AF500006B010BD500B0200760B02007FB5041C3A
:10AF600001AD281CFFF7F8FB281CFFF75AFB261C35
:10AF7000022362681436134363601749301C02F0E1
:10AF800032FB036801211B6F9847236A5D60301C08
:10AF900002F07CFA002806D00121281C4942FFF764
:10AFA00087FB0028F3D0206A03685B6A9847002279
:10AFB000236A301C5A60022362689A43626002F07E
:10AFC00065FA002803D0301C012102F043FB281C45
:10AFD000FFF738FB7FBDC046840B020008B503684D
:10AFE0001B69984708BD000010B5041CFFF708FA5C
:10AFF000024B201C23600A23636010BD88080200F6
:10B0000070B50E1C151C041C0368DB699847321CC4
:10B010002B1C211C014801F09FF870BDDDAF010021
:10B020000EB433B5041C05AB20CB01930368DB6978
:10B0300098472A1C211C019B034801F08DF836BC5F
:10B0400008BC03B01847C046DDAF01001FB50A1C9D
:10B05000012100910021031C0191029161310391B2
:10B060000348191C5B6801F01CF805B000BDC04620
:10B07000DDAF01001FB50023041C00930193029370
:10B0800061330A1C0393211C6368024801F009F82C
:10B0900004B010BDDDAF0100F7B5051C51201F1C29
:10B0A000161CFBF7BFFB0523321C00933B1C041C42
:10B0B00000F01AFF0023291C0093221C044800F012
:10B0C000ABFF051C201CFBF7B1FB281CFEBDC046D6
:10B0D000DDAF010013B501A8FCF7B6FB041E03D1D8
:10B0E000019B002BF7D103E02421024AFDF7F0FE7B
:10B0F000201C16BD800C020008B5FFF7EBFF08BD51
:10B1000037B56B46DC1D002323700368211C9D6945
:10B11000012301225B42A84720783EBD13B56B4650
:10B12000D9710733191C012302685B42D4690122DB
:10B13000A04713BDF7B5051C0F1C01240092019315
:10B14000009B661E9C4210D02B68281C9B6A984767
:10B15000011E1F2909D9019BB855002B03D02B686C
:10B16000281CDB6A98470134EAE70023301CBB55F2
:10B17000FEBD08B5303001F0B6FC08BD08B5203082
:10B1800001F0B5FC08BD10B5041C203001F0A6FC90
:10B19000201C303001F0A2FC10BDF7B5041C071CC8
:10B1A000261C01930B68151C0360183B4A681B683A
:10B1B0000837C2501436381CFFF7CEFA301CFFF7A0
:10B1C000CBFA0023281D6360FBF72CFB019B206456
:10B1D000181DFBF727FB6064201CAAB2216C2030ED
:10B1E00001F047FC6B46201C9A88616C303001F0FE
:10B1F00040FC381CFFF715FA301CFFF712FA201C30
:10B20000FEBD000038B5041C0D1E01D1136801E01D
:10B21000184B1833002123608D4201D1183B196867
:10B220006118002D01D1536801E0124B18330B60F7
:10B23000206CFBF7FBFA606CFBF7F8FA60680028FB
:10B2400003D003680021DB699847201C1430FFF706
:10B25000F9F9201C0830FFF7F5F9AB0702D5201CDF
:10B26000FFF7C6F8EB0702D5201CFBF7DFFA201C1E
:10B2700038BDC046980C020008B50A1C0021FFF733
:10B28000C1FF08BDF7B5051C0E1C1F1C141C019244
:10B29000002C1AD02B68281C1B6A9847002814D051
:10B2A000281C311C303001F007FC002802D1013C81
:10B2B0000136EDE7002F08D0281C391C1430FFF7A9
:10B2C000F7F90028E4D17B1CE2D0019B181BFEBDDE
:10B2D000F7B5041C0E1C1F1C151C0192002D1CD060
:10B2E0002368201C1B6A9847002816D0201C317840
:10B2F000203001F0CFFB002802D1013D0136EDE7FF
:10B30000002F0AD02368201CDB6D00219847201CE9
:10B31000391C0830FFF7CCF9E0E72368201CDB6D0F
:10B3200000219847019B581BFEBD38B5041C0D1C1D
:10B33000201C203001F0D7FB002807D0201C291C3E
:10B340000830FFF7B5F90028F2D100E0013038BD30
:10B3500070B586B0051C0E1C01A8202100F044FB2E
:10B360002B68281C9B6A9847041E15D0002E04D019
:10B370002B68281CDB6A211C9847231C2D3BDBB261
:10B38000012B04D9201C04F0C9FB002804D001A81B
:10B39000211C00F05EF9E3E7002101A800F07DF830
:10B3A00001F036F8041C01A800F0FAFA201C06B0DF
:10B3B00070BD70B586B0051C0E1C01A8202100F0E0
:10B3C00013FB2B68281C9B6A9847041E10D0002E84
:10B3D00004D02B68281CDB6A211C9847201C04F031
:10B3E000A7FB002804D001A8211C00F032F9E8E7EF
:10B3F00001A8002100F051F8102100F0DDFF041C2D
:10B4000001A800F0CDFA201C06B070BD70B586B062
:10B41000051C0E1C01A8202100F0E6FA2B68281C50
:10B420009B6A9847041E12D0002E04D02B68281C5B
:10B43000DB6A211C98472D2C04D0201C04F06EFBE5
:10B44000002804D001A8211C00F003F9E6E701A8B8
:10B45000002100F022F80A2100F0AEFF041C01A830
:10B4600000F09EFA201C06B070BD08B503680021EC
:10B470005B6A984708BD08B5036800215B6A984776
:10B4800008BD0020704708B5036800215B6A984733
:10B4900008BD7047006980B27047002903D0036976
:10B4A0005B005B08036100238268C16853548068B5
:10B4B00070470023018A10B5C3608B4209D08268AF
:10B4C000D2181478002C02D1C360147001E001334B
:10B4D000F3E7C06810BDC068704700238268C3608E
:10B4E00013707047C2680023914201DA83685B5C85
:10B4F000181C7047036910B59CB2A14203DA5B00C7
:10B5000001D483685A5410BD026910B5002352005B
:10B510000DD4C26893420ADA8268D21811780C1CE2
:10B52000613C192C01D8203911700133F1E703680F
:10B5300000215B6A984710BD026910B500235200D4
:10B540000DD4C26893420ADA8268D21811780C1CB2
:10B55000413C192C01D8203111700133F1E7036807
:10B5600000215B6A984710BD002330B5CC5C002CED
:10B5700010D0C568AA420DDA8568AD5CA54206D137
:10B580000133CC5C002C03D1D01A013004E000233D
:10B590000132EBE70120404230BDF7B5051C0F1C1E
:10B5A000161C00240193B4420BDA2A68A300526DE2
:10B5B000281C9446F958019AE047002804DA01341F
:10B5C000F1E70120404200E0201CFEBD70B50025DF
:10B5D0004B5D002B1AD0C468A24217DA8468A45CC1
:10B5E000261C413E192E00D820341E1C413E192E27
:10B5F00000D820339C4206D101354B5D002B03D18E
:10B60000501B013004E000250132E1E701204042F7
:10B6100070BD10B5C3689A4205DA8468A45C8C4298
:10B6200004D00132F7E70120404200E0101C10BDB9
:10B6300008B503681B6B984708BD08B503689B6B8A
:10B64000984708BD10B5041C03681B699847201C67
:10B6500010BD08B503681B69984708BD38B5041CC0
:10B660000D1C2978236800291CD0252906D02B29F8
:10B6700012D11B69201C0B39984711E06978002909
:10B6800010D0AA78002A0DD0090189188833C9B2D0
:10B690001B68201C984703E094331B68201C9847C4
:10B6A0000135DEE79B6A201C984738BD036910B559
:10B6B000041C202B0ADD8068FBF7B8F80023A36088
:10B6C0002368201CC0331B68202198470023A268F0
:10B6D000E360137010BD036970B5041C0E1C151CCB
:10B6E0005B0011D40368511CC4331B6898470028C1
:10B6F0000AD0002E04D0A068311C2A1CFCF71EFFC3
:10B700000023A2685355E560E06870BD70B5041C65
:10B71000081C0E1C04F01EFA051C2368201CC433F0
:10B720001B68291C9847002809D0A368E268311CCF
:10B7300098182A1CFCF702FFE3685D19E560201CDD
:10B7400070BD70B5041C081C0E1C04F003FA051C27
:10B750002368201CC4331B68291C9847002809D083
:10B76000A368E268311C98182A1CFCF7E7FEE3681E
:10B770005D19E56070BDF8B58768041C0D1C002FCD
:10B780000ED100290BD04E1C301CFBF74BF8391C96
:10B79000A060321CFCF7E2FE80231B061D432561DE
:10B7A0000023E360F8BD70B504690023620022D471
:10B7B000C268A4B2A31A99421DDD2034A31A99428B
:10B7C000FBDC051C601CFBF72DF8061CA968EA6869
:10B7D000FCF7B4FEEA680021B018A21A0132FCF7A7
:10B7E000BDFEA868FBF722F880231B0623432B61CC
:10B7F000EB68AE60E31A181C70BD10B5041C03683A
:10B80000B8331B689847E368A068591CFCF788FEAA
:10B81000C023E2681B061343A060236110BD0369C7
:10B8200010B5041C5B0003D48068E16800F048FE9A
:10B830002368201C5B6A0021984710BD08B580680A
:10B8400040180A2100F0B8FD08BD08B5806840180E
:10B85000102100F0B1FD08BD08B58068401800F067
:10B86000D7FD08BD10B5C268CC680023A24206D13E
:10B870008068896804F0A2F943424341DBB2181C96
:10B8800010BD38B5051C081C0C1C04F063F9EB68EE
:10B89000021C0020934207DBA868211C04F08EF9EB
:10B8A000031C58425841C0B238BD08B5FFF7E2FB4F
:10B8B00008BD08B5FFF7F0FB08BD08B5FFF7C6FBEC
:10B8C00008BD38B50368C268C4330D1C1B68511C21
:10B8D000041C9847002809D00021281CE3685A1C42
:10B8E000E260A268D554A268E368D15438BD036908
:10B8F00010B5041C5A0006D49BB2002B03D0036879
:10B9000090331B689847201C10BD38B503695B0055
:10B9100001D5002010E00368CA68C4330D1C1B6801
:10B92000511C041C98470028F3D0A068A968EA6855
:10B93000FCF704FEE868E06038BD38B503680D1C0C
:10B94000C4331B68C968041C984700280AD0A36840
:10B95000E268A9689818EA68FCF7F0FDEB68E2680D
:10B96000D318E36038BDF8B580260369F6051E409C
:10B9700015D1041C081C0F1C04F0ECF8051C2368EE
:10B98000201CC4331B68291C9847002807D0A068D6
:10B99000391C2A1CFCF7D2FDA368E5605E55F8BD92
:10B9A0000A4B10B5083303600369041C9AB2002ADD
:10B9B00004D0002B02DA8068FAF738FF044B201C11
:10B9C0002360FEF715FD201C10BDC046100D0200BF
:10B9D0008808020010B5041CFFF7E2FF201CFAF7EC
:10B9E00025FF201C10BD000038B5041C0D1CFFF7FE
:10B9F000FBFA064B201C083323600023291CA3609C
:10BA00002361E360FFF7B7FE201C38BD100D020074
:10BA1000F8B50E1C1D1C171C2021041CFFF7E4FFA9
:10BA2000F1687A1900238A4209DAAB4206DAB26871
:10BA3000A168D218D25DCA540133F6E7E560201C34
:10BA4000F8BD000038B5041C0D1CFFF7CDFA0A4BF9
:10BA5000201C083323600023298AA360FFF78BFE94
:10BA6000A068002806D02A8AA9680132FCF766FD82
:10BA7000EB68E360201C38BD100D020010B5041CFB
:10BA8000FFF7E0FF201C10BDC368F0B55C1A0B1C6B
:10BA90005D1AA54205DA85689E1AEF5C0133AF5541
:10BAA000F6E7F0BD70B50024C368591A8C420CDA71
:10BAB000C36886681D1B75199B181B1B013D2D78DB
:10BAC000F318013B1D700134F0E770BD0369F7B551
:10BAD0009CB2002C01D1002036E08024E4052340F4
